:020000040800F2
:10000000980A0020B1010008852200088722000814
:100010008B2200088F2200089322000800000000B5
:10002000000000000000000000000000972200080F
:1000300099220008000000009B2200089D22000871
:10004000CB010008CB010008CB010008CB01000860
:10005000CB010008CB010008CB010008CB01000850
:10006000CB010008CB010008CB010008CB01000840
:10007000CB010008CB010008CB010008CB01000830
:10008000CB010008CB010008CB010008CB01000820
:10009000CB010008CB010008CB010008CB01000810
:1000A000CB010008CB010008CB010008CB01000800
:1000B000CB010008DB1C0008CB010008CB010008C5
:1000C000CB010008CB010008CB010008CB010008E0
:1000D000CB010008851E0008631F00087920000876
:1000E000CB010008CB010008CB01000800F002F8AA
:1000F00000F04EF80AA090E8000C82448344AAF174
:100100000107DA4501D100F043F8AFF2090EBAE871
:100110000F0013F0010F18BFFB1A43F0010318473B
:1001200088540000A8540000103A24BF78C878C151
:10013000FAD8520724BF30C830C144BF04680C60ED
:10014000704700000023002400250026103A28BF35
:1001500078C1FBD8520728BF30C148BF0B60704739
:10016000642904F03785782904F07085632904F048
:10017000AA87002070471FB59DE8030005F03CF8F2
:1001800004F0DAFE1FBD10B5002005F041F910BDE6
:1001900005F093F81146FFF7EEFF01F0BBFF05F005
:1001A000CBF803B4FFF7EFFF03BC01F0F5FD00004F
:1001B0000948804709480047FEE7FEE7FEE7FEE7FB
:1001C000FEE7FEE7FEE7FEE7FEE7FEE70448054937
:1001D000054A064B70470000A7230008ED00000801
:1001E00098040020980A0020980600209806002015
:1001F00031490143314A1160704770B50021002335
:100200000F22C47804B32D4C246804F4E064C4F5D0
:10021000E064210AC1F10403CA40447804FA03F1FE
:100220008478144021430901254C0678A1550478AF
:1002300004F01F050124AC4005786D11AD0005F1F7
:10024000E025C5F8004109E0047804F01F05012409
:10025000AC401C4D0678761145F8264070BD1A4A10
:100260000A400243154B1B1F1A60704739B1134AED
:10027000121D12680243114B1B1D1A6006E00F4A43
:10028000121D126882430D4B1B1D1A607047042813
:1002900008D14FF0E021096941F004014FF0E0225C
:1002A000116107E04FF0E021096921F004014FF0EE
:1002B000E0221161704700000000FA050CED00E03B
:1002C00000E400E080E100E080FFFF1F10B504467D
:1002D000CC48844208D10121042000F02DFB0021EC
:1002E000042000F029FB46E0C748844208D10121E0
:1002F000082000F021FB0021082000F01DFB3AE05F
:10030000C248844208D10121102000F015FB0021D1
:10031000102000F011FB2EE0BD48844208D10121DD
:10032000202000F009FB0021202000F005FB22E046
:10033000B848844208D10121402000F0FDFA002194
:10034000402000F0F9FA16E0B348844208D10121B8
:10035000802000F0F1FA0021802000F0EDFA0AE0A0
:10036000AE48844207D10121801500F0E5FA002152
:10037000A01500F0E1FA10BD10B50121084600F00B
:10038000DBFA0021012000F0D7FA10BD2DE9F04181
:10039000024600250026002000230024002791F8B3
:1003A00003C00CF00F0591F803C00CF0100CBCF169
:1003B000000F03D091F802C04CEA050591F800C087
:1003C000BCF1000F31D0146800202BE04FF0010C7D
:1003D0000CFA00F3B1F800C00CEA03069E4220D1EB
:1003E00083004FF00F0C0CFA03F7BC4305FA03FC33
:1003F0004CEA040491F803C0BCF1280F06D14FF079
:10040000010C0CFA00FCC2F814C00AE091F803C019
:10041000BCF1480F05D14FF0010C0CFA00FCC2F8FA
:1004200010C0401C0828D1D31460B1F800C0BCF142
:10043000FF0F34DD546800202EE000F1080C4FF06F
:10044000010808FA0CF3B1F800C00CEA03069E425A
:1004500021D183004FF00F0C0CFA03F7BC4305FACF
:1004600003FC4CEA040491F803C0BCF1280F05D149
:1004700000F1080C08FA0CF8C2F8148091F803C0D7
:10048000BCF1480F07D100F1080C4FF0010808FA41
:100490000CF8C2F81080401C0828CED35460BDE888
:1004A000F0814FF6FF710180022181700421C1703B
:1004B00070470246002093680B400BB1012000E01A
:1004C000002070470146886880B2704702460020CD
:1004D000D3680B400BB1012000E0002070470146BB
:1004E000C86880B2704701617047416170470AB1C6
:1004F000016100E041617047C16070474FF4803294
:100500000A43826181618261826982697047024621
:100510000020434B18684FF68073184040EA0210E1
:1005200008433F4B186070473E49C8617047F0B5BB
:100530000A46002300240021002500F00046B6F101
:10054000004F02D1364EF16901E0354E7168C0F3BB
:10055000034583B200F44016B6F5401F08D121F0E0
:1005600070612F4E766826F070662D4F7E6012E027
:1005700000F48016B6F5801F06D1032606FA05F4AE
:10058000A14341F0706106E0460D360103FA06F61C
:10059000B14341F0706122B1460D360103FA06F60F
:1005A000314300F00046B6F1004F02D11C4EF1611C
:1005B00001E01B4E7160F0BD30B500228B071C0FAF
:1005C0000F2303FA04F2164B08338C1053F824302F
:1005D0009343134C08348D1044F8253023468C1077
:1005E00053F824308C07240F00FA04F423430C4CF6
:1005F00008348D1044F8253030BD0A49DC310860DC
:100600007047000000080140000C0140001001404C
:100610000014014000180140001C0140002001406E
:100620000000014000002042DF48006840F0010067
:10063000DD49086008464068DC490840DA494860FE
:1006400008460068DA490840D7490860084600684B
:1006500020F4802008600846406820F4FE004860CE
:100660004FF41F0088607047CF49096821F480313A
:10067000CD4A11601146096821F480211160B0F55E
:10068000803F03D0B0F5802F0ED106E0C64909683F
:1006900041F48031C44A116007E0C349096841F45C
:1006A000A021C14A116000E000BF00BF704710B533
:1006B00001460022002300204A11012A02D1BA4C2F
:1006C000236806E0022A02D1B74C236A01E0B64C47
:1006D000636A01F01F02012494401C400CB1012008
:1006E00000E0002010BD38B5002000900024002557
:1006F00000BF3120FFF7DBFF05460098401C00904B
:100700000098B0F5A06F01D0002DF2D03120FFF796
:10071000CEFF08B1012400E00024204638BD014688
:100720000020A14A106820F0F80040EAC1001060E3
:100730007047A04908607047024600209A4B5868ED
:1007400020F47C1042EA01031843974B586070472D
:1007500098490866704701460020934A506820F087
:1007600003000843506070478F48406800F00C0059
:100770007047014600208C4A506820F0F000084382
:100780005060704701460020874A506820F4E060BE
:1007900008435060704701460020834A506820F4A7
:1007A000605040EAC1005060704729B17E4A527AD9
:1007B00002437D4B5A7204E07B4A527A82437A4B61
:1007C0005A7270477B49D831086070470146002053
:1007D000754A506820F4404008435060704700213B
:1007E000714A20321170704A82F82010012802D01C
:1007F00004280AD104E001216B4A2032117005E07F
:100800000521694A2032117000E000BF00BF704727
:100810006949086070476449096A0143624A116284
:100820007047654944390860704730B5002100229F
:10083000002400235C4D6D6805F00C0121B10429F2
:1008400005D0082923D105E05C4D056022E05C4D10
:1008500005601FE0544D6D6805F47012524D6D68CF
:1008600005F48034022505EB92421CB9554D5543E1
:1008700005600BE04C4D6D6805F400351DB1524D1F
:100880005543056002E04E4D5543056002E04B4D77
:10089000056000BF00BF444D6D6805F0F001090917
:1008A0004A4D6B5C0568DD4045603F4D6D6805F461
:1008B000E061090A454D6B5C4568DD4085603A4D55
:1008C0006D6805F46051C90A404D6B5C4568DD40B8
:1008D000C560354D6D6805F44041890B3C4D6B5C3E
:1008E000C568B5FBF3F5056130BD29B12E4A5269E3
:1008F00002432D4B5A6104E02B4A526982432A4B32
:100900005A61704729B1284A92690243264B9A617D
:1009100004E0254A92698243234B9A61704729B1CA
:10092000214AD2690243204BDA6104E01E4AD269AF
:1009300082431D4BDA61704729B11B4AD2680243DA
:10094000194BDA6004E0184AD2688243164BDA6029
:10095000704729B1144A12690243134B1A6104E02B
:10096000114A12698243104B1A617047124940398B
:10097000086070470F49C86470470B49C8717047D9
:100980000948406A40F08070074948627047014654
:100990000020054A92680A400AB1012000E00020C8
:1009A0007047014988727047001002400000FFF84C
:1009B000FFFFF6FE000042428004424200127A002D
:1009C000001BB70000093D00808D5B000000002087
:1009D0001000002010B50446FE48844208D10121D1
:1009E000C014FFF7A9FF0021E014FFF7A5FFC4E042
:1009F000B4F1804F08D101210846FFF7AAFF00217A
:100A00000120FFF7A6FFB8E0F348844208D1012196
:100A10000220FFF79EFF00210220FFF79AFFACE0C3
:100A2000EE48844208D101210420FFF792FF002103
:100A30000420FFF78EFFA0E0E948844208D101219D
:100A40000820FFF786FF00210820FFF782FF94E0CF
:100A5000E448844208D101211020FFF77AFF0021E9
:100A60001020FFF776FF88E0DF48844208D101219B
:100A70002020FFF76EFF00212020FFF76AFF7CE0B7
:100A8000DA48844208D101214014FFF755FF0021C4
:100A90006014FFF751FF70E0D548844209D101216D
:100AA000C804FFF749FF00214FF40020FFF744FF7F
:100AB00063E0D048844209D101210805FFF73CFFDB
:100AC00000214FF48010FFF737FF56E0CA488442F8
:100AD00009D101214805FFF72FFF00214FF4001035
:100AE000FFF72AFF49E0C548844208D10121402090
:100AF000FFF72FFF00214020FFF72BFF3DE0C0480C
:100B0000844208D101218020FFF723FF00218020AB
:100B1000FFF71FFF31E0BB48844208D10121801557
:100B2000FFF717FF0021A015FFF713FF25E0B648D8
:100B3000844209D101210804FFF7FEFE00214FF491
:100B40008030FFF7F9FE18E0B048844209D1012156
:100B50004804FFF7F1FE00214FF40030FFF7ECFEF0
:100B60000BE0AB48844208D101218804FFF7E4FE82
:100B700000214FF48020FFF7DFFE10BD0022028825
:100B8000944B98420ED0994B98420BD0B0F1804FC5
:100B900008D0914B984205D0904B984202D0904B90
:100BA000984204D14FF68F731A404B881A438D4BED
:100BB000984207D08C4B984204D04FF6FF431A401E
:100BC000CB881A4302808B8883850B880385814BF1
:100BD00098420BD0854B984208D08B4B984205D059
:100BE0008A4B984202D08A4B984201D10B7A0386F5
:100BF00001238382704770B5002400220023058CF6
:100C00004FF6FE7635400584028C8388048B4FF6C0
:100C10008F752C40B51E2C400D882C43751E2A4024
:100C20000D892A434D882A436A4DA8420BD06F4D47
:100C3000A84208D0744DA84205D0744DA84202D0F5
:100C4000734DA84213D14FF6F7752A404D892A43B8
:100C50004FF6FB752A408D882A434FF6FF652B40DF
:100C60004FF6FF552B408D892B43CD892B43838035
:100C70000483CD888586028470BD70B5002400226F
:100C80000023058C4FF6EF7635400584028C83886F
:100C9000048B48F6FF752C404FF6FF452C400D881D
:100CA0004FF6FF7606EA05252C434FF6DF752A40FE
:100CB0000D8906EA05152A434D8806EA05152A43DB
:100CC000444DA84202D0494DA8421DD14FF67F7530
:100CD0002A404D894FF6FF7606EA05152A434FF65E
:100CE000BF752A408D8806EA05152A434FF6FF3561
:100CF0002B404FF2FF752B408D8906EA85052B436B
:100D0000CD8906EA85052B4383800483CD8805873A
:100D1000028470BD70B5002400220023058C4FF6BC
:100D2000FF6635400584028C8388848B4FF68F756F
:100D30002C404FF6FC752C400D882C434FF6FF5588
:100D40002A400D894FF6FF7606EA05252A434D888D
:100D500006EA05252A431F4DA84202D0234DA8428A
:100D60001DD14FF2FF752A404D894FF6FF7606EAF6
:100D700005252A434FF6FF352A408D8806EA0525CA
:100D80002A434EF6FF752B404DF6FF752B408D899B
:100D900006EA05152B43CD8906EA05152B4383800A
:100DA0008483CD888587028470BD70B500220023BE
:100DB0000024058C4EF6FF7635400584038C84882C
:100DC000828B48F6FF752A404FF6FF452A400D8872
:100DD00020E00000002C014000040040000800401A
:100DE000000C00400010004000140040003401409E
:100DF000004C0140005001400054014000180040E8
:100E0000001C004000200040004001400044014020
:100E1000004801404FF6FF7606EA05252A434DF6C5
:100E2000FF752B400D8906EA05352B434D8806EAF0
:100E300005352B43FA4DA84202D0FA4DA84208D1FD
:100E40004BF6FF752C408D894FF6FF7606EA851527
:100E50002C4384808283CD88A0F84050038470BDE9
:100E6000828B4FF2FF331A408283828B4FF6FF73DF
:100E700003EA01231A4382837047F0B50C461546F6
:100E8000002200210026078C4EF6FF7C07EA0C07A3
:100E90000784828B018C4FF6FF7707EA043640F611
:100EA000FF473A404FF6FF7707EA05273A434FF6E8
:100EB000FF7707EA03373A43D94FB8420ED0D94FEC
:100EC000B8420BD0B0F1804F08D0D74FB84205D010
:100ED000D64FB84202D0D64FB84206D14DF6FF7772
:100EE000394046F48057394305E047F6FF5739400B
:100EF00044F48057394382830184F0BD828B4FF6DE
:100F0000F3731A408283828B0A4382837047F0B561
:100F10000C461546002200210026078C4FF6FF6C78
:100F200007EA0C070784828B018C4FF6FF7707EAEC
:100F300004264FF60C773A404FF6FF7707EA03177F
:100F40002F433A43B64FB8420ED0B64FB8420BD0FB
:100F5000B0F1804F08D0B44FB84205D0B34FB8427B
:100F600002D0B34FB84206D14FF6FF57394046F48E
:100F70008077394305E04FF2FF57394044F48077DA
:100F8000394382830184F0BD028B4FF2FF331A4054
:100F90000283028B4FF6FF7303EA01231A43028395
:100FA0007047F0B50C461546002200210026078C3C
:100FB0004FF6EF7C07EA0C070784028B018C4FF693
:100FC000FF7707EA041640F6FF473A404FF6FF77EF
:100FD00007EA03373A434FF6FF7707EA05273A4314
:100FE0008F4FB8420ED08F4FB8420BD0B0F1804F28
:100FF00008D08D4FB84205D08C4FB84202D08C4FEC
:10100000B84206D14FF6DF77394046F01007394332
:1010100005E04FF65F77394044F01007394302830B
:101020000184F0BD028B4FF6F3731A400283028BEA
:101030000A4302837047F0B50C4615460022002192
:10104000068C4FF6FE773E400684028B018C4FF6ED
:101050000C7632407E1C06EA03162E433243704E55
:10106000B0420ED06F4EB0420BD0B0F1804F08D0DE
:101070006D4EB04205D06D4EB04202D06C4EB042C3
:1010800006D14FF6FD76314044F00106314305E0CC
:101090004FF6F576314044F0010631430283018476
:1010A000F0BD70B505460C465D4885420ED05D48E2
:1010B00085420BD0B5F1804F08D05B48854205D002
:1010C0005A48854202D05A48854200D100E000BF0C
:1010D000208850B92389A28861882846FFF7ABFF92
:1010E000E1882846FFF79EFF25E0208804280AD1E2
:1010F0002389A28861882846FFF753FFE1882846A4
:10110000FFF742FF17E0208808280AD12389A28828
:1011100061882846FFF7FBFEE1882846FFF7EEFED0
:1011200009E02389A28861882846FFF7A6FEE188A6
:101130002846FFF795FE70BD2DE9F04105460C46A7
:1011400000260127608808B9022600E00026A08852
:10115000012801D1022700E001272088A0B92389B6
:10116000A28861882846FFF766FFE1882846FFF7D6
:1011700059FF23893A4631462846FFF712FFE18896
:101180002846FFF701FF13E02389A28861882846DB
:10119000FFF707FFE1882846FFF7F6FE23893A4666
:1011A00031462846FFF747FFE1882846FFF73AFF18
:1011B000BDE8F0810A884B881A438B881A43CB8894
:1011C0001A430B891A434B891A438B891A43A0F897
:1011D000442070474FF6FF71818000210180C1805B
:1011E0004180017270470021018041808180C1806F
:1011F000018141818181C18170470021018041804D
:10120000012181800021C18001817047002101807E
:1012100041808180C18001814181818170470000CE
:10122000002C014000340140000400400008004050
:10123000000C004021B1028842F00102028004E06B
:1012400002884FF6FE731A400280704731B1B0F841
:10125000442042F40042A0F8442005E0B0F84420C5
:10126000C2F30E02A0F8442070471AB183890B43E1
:10127000838102E083898B43838170478182704739
:1012800041EA0203A0F8483070471AB183890B4342
:10129000838102E083898B438381704701894FF604
:1012A000F8721140018170470A46002101894FF60A
:1012B0008F73194011430181704730B504460D46C4
:1012C00029462046FFF7F0FF208940F007002081E3
:1012D00030BD2DE9F04104460D4616461F46602DEF
:1012E00006D13B46012231462046FFF75AFE05E073
:1012F0003B46012231462046FFF79DFE2946204607
:10130000FFF7D2FF208940F007002081BDE8F0817F
:1013100030B50C4600210189C9B24FF6FF7505EAC8
:101320000325154325432943018130BD2DE9F041B3
:1013300005460E4617469846002443463A4631462F
:101340002846FFF7E5FF2C894FF6F870044044F07B
:1013500007044FF68F70044044F070042C81BDE800
:10136000F081F0B504460D4616461F463B46324610
:1013700029462046FFF7CCFF208940F48040208199
:10138000F0BD0185828270470A46002101884FF630
:101390008F731940114301807047F0B50C46154614
:1013A0001E460021002200230189028B038C4FF688
:1013B000F877394021434FF6FC473A4040F2011795
:1013C0003A434FF6DD773B404FF6FF7707EA0617C3
:1013D0002F433B43018102830384F0BD0A46002171
:1013E000018B4FF68F7319401143018370470A46F2
:1013F0000021018B48F6FF7319404FF6FF7303EA93
:1014000002231943018370470A460021818B4FF65E
:101410008F7319401143818370470A460021818BE5
:1014200048F6FF7319404FF6FF7303EA022319438E
:101430008183704721B1028842F08002028004E07B
:1014400002884FF67F731A400280704721B182886C
:1014500042F00402828004E082884FF6FB731A4057
:101460008280704721B1828842F00802828004E0C5
:1014700082884FF6F7731A408280704721B18288C4
:1014800042F00102828004E082884FF6FE731A4027
:10149000828070470A460021018B4FF6F77319408E
:1014A0001143018370470A460021018B4FF2FF73FD
:1014B00019404FF6FF7303EA022319430183704773
:1014C0000A460021818B4FF6F7731940114381833F
:1014D00070470A460021818B4FF2FF7319404FF687
:1014E000FF7303EA02231943818370470A460021F0
:1014F000018B4FF6FB7319401143018370470A4675
:101500000021018B4FF6FF3319404FF6FF7303EABA
:1015100002231943018370470A460021818B4FF64D
:10152000FB7319401143818370470A460021818B68
:101530004FF6FF3319404FF6FF7303EA02231943B6
:10154000818370470A460021018B4FF67F73194053
:101550001143018370470A460021018BC1F30E013C
:101560004FF6FF7303EA02231943018370470A46CB
:101570000021818B4FF67F7319401143818370479F
:101580000A460021818BC1F30E014FF6FF7303EA77
:1015900002231943818370470A460021018C4FF6CC
:1015A000FD7319401143018470470A460021018CE4
:1015B0004FF6F77319401143018470470A46002122
:1015C000018C4FF6DF7319404FF6FF7303EA0213E5
:1015D0001943018470470A460021018C4FF67F733E
:1015E00019404FF6FF7303EA021319430184704751
:1015F0000A460021018C4FF6FF5319404FF6FF7346
:1016000003EA02231943018470470A460021018C32
:101610004FF2FF7319404FF6FF7303EA0223194399
:10162000018470470A460021018C4DF6FF73194072
:101630004FF6FF7303EA023319430184704730B554
:10164000002301248C40A3B2048C9C430484048CAA
:1016500002FA01F5ADB22C43048430BD30B500234D
:1016600004248C40A3B2048C9C430484048C02FAAE
:1016700001F5ADB22C43048430BD70B503460020A3
:1016800000241846183001258D40ACB21D8CA543AE
:101690001D8409B1082909D100EB6100056825F016
:1016A000700505600568154305600EE00D1FC5F364
:1016B0004E052844056825F4E045056005684FF6A9
:1016C000FF7606EA02263543056070BD21B1028827
:1016D00042F00202028004E002884FF6FD731A40D5
:1016E0000280704721B1028842F00402028004E0C7
:1016F00002884FF6FB731A400280704721B182883E
:1017000042F08002828004E082884FF67F731A40A4
:101710008280704702884FF6F7731A400280028871
:101720000A430280704782884FF68F731A40828086
:1017300082880A438280704702894FF6F8731A4004
:10174000028102890A430281704702894FF67F7342
:101750001A40028102890A430281704781847047DE
:101760008185704781867047018770478187704700
:10177000A0F84010704702884FF6FF431A400280DD
:1017800002880A43028070470146888E70470146EE
:10179000088F70470146888F70470146B1F84000B6
:1017A00070470146888C70470146088D7047024695
:1017B0000020138A0B400BB1012000E0002070478D
:1017C000CA430282704730B502460020002300243D
:1017D000158A05EA0103958905EA010413B10CB1E4
:1017E000012000E0002030BDCA43028270470000A3
:1017F00010B50446FB48844209D101218803FFF754
:101800009BF800214FF48040FFF796F832E0F6484D
:10181000844209D101214804FFF79BF800214FF4CD
:101820000030FFF796F825E0F048844209D1012105
:101830008804FFF78EF800214FF48020FFF789F825
:1018400018E0EB48844209D10121C804FFF781F870
:1018500000214FF40020FFF77CF80BE0E5488442BC
:1018600008D101210805FFF774F800214FF480101A
:10187000FFF76FF810BD2DE9F04786B005460E461C
:101880000024A24600BFA1460027B08900B100BFD6
:101890002F462C8A4CF6FF700440F08804432C82BB
:1018A000AC894EF6F3100440B08831890843718941
:1018B00008430443AC81AC8A4FF6FF400440B08932
:1018C0000443AC8201A8FEF7B0FFC648874202D1AC
:1018D000DDF810A001E0DDF80CA0A88900F40040BC
:1018E00040B10AEBCA0000EB0A1031684900B0FBB6
:1018F000F1F807E00AEBCA0000EB0A103168890032
:10190000B0FBF1F86420B8FBF0F004012009642179
:1019100001FB1089A88900F4004040B1322000EB9F
:10192000C900B0FBF1F000F00700044308E03220EA
:1019300000EB09106421B0FBF1F000F00F0004434C
:101940002C8106B0BDE8F0874FF4165101600021EC
:101950008180C18001810C214181002181817047FA
:1019600010B502460020108A4FF2FF0318400B8882
:101970004C8823438C882343CC882343184310820C
:1019800010BD0021018041808180C180704721B15C
:10199000828942F40052828104E082894DF6FF730D
:1019A0001A4082817047F0B50346002400260025C6
:1019B000002040F66A17B94200D100BF1846C1F3B3
:1019C000421401F01F06012707FA06F5012C01D188
:1019D0000C3004E0022C01D1103000E014301AB1B8
:1019E00007682F43076002E00768AF430760F0BD58
:1019F0001AB1838A0B43838202E0838A8B438382FA
:101A00007047028A4FF6F0731A400282028A0A4334
:101A10000282704782894FF2FF731A408281828965
:101A20000A438281704721B1828942F00202828199
:101A300004E082894FF6FD731A4082817047028A62
:101A40004FF6DF731A400282028A0A43028270470D
:101A500021B1028A42F48042028204E0028A4BF6FB
:101A6000FF731A4002827047C1F3080282807047F8
:101A700001468888C0F308007047818941F0010160
:101A800081817047028BD2B20283028B42EA01222B
:101A900002837047028B02F47F420283028B0A4367
:101AA0000283704721B1828A42F02002828204E0E0
:101AB000828A4FF6DF731A408282704721B1828A90
:101AC00042F01002828204E0828A4FF6EF731A40DD
:101AD0008282704721B1828A42F00802828204E049
:101AE000828A4FF6F7731A408282704721B1828949
:101AF00042F40042828103E08289C2F30E028281B5
:101B0000704721B1828A42F40062828204E0828AB4
:101B10004FF2FF731A4082827047828A4FF6FB733E
:101B20001A408282828A0A438282704721B1828A65
:101B300042F00202828204E0828A4FF6FD731A406C
:101B40008282704702460020B1F5007F00D100BFBD
:101B500013880B400BB1012000E00020704701F416
:101B60000072B2F5007F00D100BFCA430280704707
:101B700070B50246002400230025002040F66A16B6
:101B8000B14200D100BFC1F3421501F01F0301268D
:101B900006FA03F3012D02D19689334006E0022DA7
:101BA00002D1168A334001E0968A33400C12012696
:101BB00006FA04F41688344013B10CB1012000E099
:101BC000002070BD10B50022002340F66A14A14227
:101BD00000D100BF0A1201249440A3B2DC43048068
:101BE00010BD0000003801400044004000480040A3
:101BF000004C00400050004008B501210520FEF7D0
:101C000081FE01211A48FEF792FC4FF48040ADF8A6
:101C1000000010208DF8030003208DF802006946B3
:101C20001448FEF7B3FB01211020FEF76BFE4FF4C2
:101C30000160ADF8000010208DF8030003208DF83E
:101C4000020069460C48FEF7A1FB01212020FEF7A7
:101C500059FE0420ADF8000010208DF80300032089
:101C60008DF8020069460548FEF790FB08BD0000AC
:101C70000004300000080140001001400014014041
:101C80007FB505460C4601210220FEF748FEADF85F
:101C90000850ADF804400020ADF80A00ADF8060089
:101CA00001A92348FEF76AFF012241212048FFF7DE
:101CB000DCFA1D208DF8000003208DF801000220C1
:101CC0008DF8020001208DF803006846FEF795FAB2
:101CD00001211748FFF7AEFA7FBD10B5002401219E
:101CE0001348FFF770FD08B301211148FFF77CFD91
:101CF000104800F0BCF800BF04E000200D49085572
:101D0000601C84B2FF2CF8DB00200B4908800B48D4
:101D100000F054F9002404E0002008490855601C34
:101D200084B2FF2CF8DB00200549088010BD0000BC
:101D300000040040530100201A000020540000203D
:101D40001800002000210A4A118000BF08490988B4
:101D50008142FBDB704710B50346002405E04FF4D9
:101D60007A70FFF7EFFF601C84B29C42F7DB10BD76
:101D70002200002010B54FF4A060FEF739FA10BD24
:101D800000BFD949098801F040010029F9D0C1B24A
:101D9000D54A121D11807047014600207047024647
:101DA00000BFD148008800F040000028F9D0D0B230
:101DB000CD4B1B1D18800020704710B586B004461F
:101DC000012144F20500FEF79DFD4FF40070ADF8CF
:101DD000140003208DF8160018208DF8170005A9AF
:101DE000C248FEF7D3FA4FF48060ADF81400042027
:101DF0008DF8170005A9BD48FEF7C8FA25208DF813
:101E0000000003208DF801008DF8020001208DF8FC
:101E100003006846FEF7F1F901940020ADF80800D0
:101E2000ADF80A00ADF80C00ADF810000C20ADF8CC
:101E30000E0001A9AC48FFF71EFD012240F225511A
:101E4000A948FFF7B0FD0121A748FFF7A0FD06B0A4
:101E500010BD10B5044600BF4021A348FFF772FE35
:101E60000028F9D02146A048FFF7FEFD10BD10B5AF
:101E7000044603E014F8010BFFF7EBFF207800287D
:101E8000F8D110BD10B540F225519748FFF770FE0C
:101E9000B0B19548FFF7ECFDC4B295480088FF2823
:101EA00002DD00209249088091490888411C904A2F
:101EB000118090490C5440F225518B48FFF782FE67
:101EC00010BD10B586B0044601210520FEF71AFDAD
:101ED00001214804FEF723FD0420ADF8140003207F
:101EE0008DF8160018208DF8170005A97F48FEF719
:101EF0004DFA0820ADF8140004208DF8170005A94C
:101F00007A48FEF743FA26208DF8000000208DF86D
:101F100001008DF8020001208DF803006846FEF7ED
:101F20006CF901940020ADF80800ADF80A00ADF896
:101F30000C00ADF810000C20ADF80E006E48FFF755
:101F400057FC01A96C48FFF796FC012240F225518D
:101F50006948FFF728FD01216748FFF718FD06B023
:101F600010BD10B540F225516348FFF701FEB0B136
:101F70006148FFF77DFDC4B260480088FF2802DD9C
:101F800000205E4908805D490888411C5B4A118039
:101F90005B490C5440F225515748FFF713FE10BD22
:101FA00010B5044600BF40215348FFF7CBFD002881
:101FB000F9D021465048FFF757FD10BD10B5044633
:101FC00003E014F8010BFFF7EBFF20780028F8D1AD
:101FD00010BD10B586B0044601210920FEF792FC21
:101FE00001218804FEF79BFC4FF48060ADF81400DB
:101FF00003208DF8160018208DF8170005A9414818
:10200000FEF7C4F94FF40060ADF8140004208DF819
:10201000170005A93B48FEF7B9F927208DF8000005
:1020200003208DF801008DF8020001208DF80300D7
:102030006846FEF7E2F801218804FEF770FC01947F
:102040000020ADF80800ADF80A00ADF80C00ADF8BE
:1020500010000C20ADF80E0001A92B48FFF70BFC77
:10206000012240F225512848FFF79DFC0121264816
:10207000FFF78DFC06B010BD10B540F22551224887
:10208000FFF776FDB0B12048FFF7F2FCC4B21F485D
:102090000088FF2802DD00201C4908801B490888B1
:1020A000411C1A4A11801A490C5440F225510E481D
:1020B000FFF788FD10BD10B5044600BF402112484F
:1020C000FFF740FD0028F9D021460F48FFF7CCFC70
:1020D00010BD10B5044603E014F8010BFFF7EBFF49
:1020E00020780028F8D110BD0038014000080140D8
:1020F0001800002054000020004400401A00002076
:1021000053010020000C0140004800401C0000204A
:102110005202002000F047F94D49B1F1807F01D310
:1021200001201DE021F07F40401E4FF0E022506171
:1021300050170F22002807DA13071D0E454B00F039
:102140000F04241F1D5503E013071C0E424B1C54A3
:1021500000BF00204FF0E0229061072010610020B6
:1021600008B100BFFEE7FFF747FD01203B490860CB
:10217000FFF700FE4FF4E130FFF71FFE4FF4E130B0
:10218000FFF79FFE4FF4E130FFF723FF00F0ABFBBA
:1021900000F0B5FB00F0B7FB01203149C1F8AC01FC
:1021A000304908603049C1F888014FF4FA70FFF7F0
:1021B000C9FD00202B4908602B49C1F8880145E082
:1021C0002A480088B0F5FA7F14DD002027490880EE
:1021D0002748007818B101202249086002E0002059
:1021E000204908602248007808B9012000E000205A
:1021F0001F4908701F4800680A21B0FBF1F201FB7B
:10220000120008B900F077FB00F091FB18B1012033
:102210001949086002E000201749086000F07BFBC4
:1022200088B10120144908601448008870B1642006
:10223000FFF788FD11480188114800F070FB00206D
:102240000E49088002E000200B490860B8E7000052
:102250004019010018ED00E000E400E09001224286
:1022600000002242B80121420080224220000020CA
:102270001E00002024000020888122421800002037
:1022800054000020704700BFFEE700BFFEE700BF1C
:10229000FEE700BFFEE770477047704707480088B9
:1022A000401C0649088006480088401C04490880F4
:1022B00004480068401C0349086070472000002063
:1022C00022000020240000200CB500200190009086
:1022D0006C48006840F480306A49086000BF694873
:1022E000006800F4003000900198401C01900098B4
:1022F00018B90198B0F5A06FF1D16248006800F4F8
:10230000003010B10120009001E000200090009802
:10231000012843D15C48006840F010005A49086029
:102320000846006820F0030008600846006840F096
:1023300002000860534840685249486008464068B7
:1023400048600846406840F480604860084640683D
:1023500020F47C1048600846406840F488104860CB
:102360000846006840F08070086000BF454800687B
:1023700000F000700028F9D04248406820F00300C7
:10238000404948600846406840F00200486000BF8D
:102390003C48406800F00C000828F9D10CBD10B58D
:1023A000FFF792FF10BD10B53648006840F00100FD
:1023B000344908600846406834490840314948605B
:1023C00008460068324908402E49086008460068FF
:1023D00020F4802008600846406820F4FE00486031
:1023E0004FF41F008860FFF7DAFF4FF000602949C3
:1023F000086010BD10B5002100200022214B5B6851
:1024000003F00C0121B1042906D0082928D107E0E6
:10241000214B224C236027E0214B204C236023E0FA
:10242000184B5B6803F47010164B5B6803F4803242
:10243000022303EB904022B91A4B4343174C23600D
:102440000DE0104B5B6803F4003323B1164B43439C
:10245000124C236003E0124B4343104C236003E013
:102460000D4B0E4C236000BF00BF064B5B68C3F3EF
:1024700003130E4CE15C094B1B68CB40074C2360F7
:1024800010BD000000100240002002400000FFF8D4
:10249000FFFFF6FE08ED00E000127A0028000020A1
:1024A000001BB70000093D00808D5B002C00002060
:1024B00010B59DA002F01EFB9E4800F0C7FA10BDAB
:1024C00010B59DA002F016FBA0499A4800F0ABFAA7
:1024D00010BD70B504460D46092C53D2DFE804F058
:1024E000222C520C0519523D360099A002F002FB35
:1024F00001209C49087045E09BA002F0FBFA0A20ED
:10250000FFF720FC02209749087000209B490870C3
:1025100038E09BA002F0EEFA0020924908709D4935
:1025200008702FE09CA002F0E5FAA0A002F0E2FA09
:1025300001209849087025E0A2A002F0DBFAA7A0CC
:1025400002F0D8FA0020934908701BE0AAA002F01C
:10255000D1FA00208F49087014E0ABA002F0CAFA4B
:102560008648007868B100F00FF8FF20AB4908708A
:102570004FF4FA70FFF7E6FB0120A8490870FFF757
:102580009FFF00BF00BF70BD10B50021022000F00A
:1025900090F90021032000F08CF900210520FFF7BD
:1025A00098FF6A4800F0CFF910BD10B50021022055
:1025B00000F07FF90021032000F07BF9634800F070
:1025C000C2F900F04DF900F5FA7095490860002055
:1025D0009449087010BD10B5FFF772FF10BD10B51B
:1025E00091A002F087FA01208C4908700022114660
:1025F000564800F0A1F90021042000F05AF900210A
:10260000022000F056F90021032000F052F910BD1D
:1026100010B5FFF7B9FF10BD5E480078704710B5E0
:1026200009E04A4800F09CF904462246214681A070
:1026300002F060FA00BF454800F087F90028F0D0AA
:1026400010BD10B54748007800B910BD7448006847
:10265000002840D000F004F971490968884200D28E
:10266000F3E77048017877A002F044FA6D480078EB
:1026700020B1012810D002282BD120E00121022016
:1026800000F017F900F0ECF800F5FA706449086002
:102690000120644908701CE04FF4E13200212B480E
:1026A00000F049F90021294800F077F900F0D8F846
:1026B0000A305B49086002205A49087009E001218C
:1026C000032000F0F6F800205649087054490860CD
:1026D00000BF00BFB9E7174800F0AFFE00BFB4E786
:1026E00070B504460D462B48007800B970BD2A46E7
:1026F0002146104802F0F1F800BFF7E719480078CA
:10270000022801D1012070470020FCE743480078EF
:10271000704710B50D4800F047F904464E4A4F493E
:1027200002F05DFE10BD00004254204354530D0AD8
:10273000000000005403002062745F70616E31304D
:1027400032365F696E69740D0A0000003E00002099
:1027500042545F4D4F445F53544154455F494E4985
:10276000540D0A004600002042545F4D4F445F5311
:10277000544154455F4F4B0D0A0000003C000020BF
:1027800042545F4D4F445F53544154455F4F46465A
:102790000D0A00004500002042545F4952515F433A
:1027A0004F4E4E45435445440D0A0000426C75653A
:1027B000746F6F746820636F6E6E65637465640D0B
:1027C0000A00000042545F4952515F444953434F4D
:1027D0004E4E45435445440D0A000000426C756559
:1027E000746F6F746820646973636F6E6E65637471
:1027F00065640D0A0000000042545F4952515F5267
:10280000455345540D0A000042545F4952515F49F7
:102810004E49545F4641494C210D0A003D000020BD
:10282000400000204400002062745F696E69740DEE
:102830000A0000003E3E2025303258202563203F0C
:102840003F0D0A00425420524553455420535445ED
:10285000503A2025640D0A0000000008AB2900084A
:1028600052480068704730B589B00546504CA07A90
:10287000617A227AE379CDE90532CDE90710A079B2
:1028800061792279E378CDE90132CDE90310A078AE
:1028900000906378227847A1284602F037F909B002
:1028A00030BD01204F490860704700204D49086045
:1028B000704700B503460A46032B05D112B1FFF756
:1028C000F0FF01E0FFF7F1FF00BD70B504460D46D3
:1028D00003E014F8010BFFF7BCFA2800A5F1010191
:1028E0008DB2F6D170BD10B5FFF779FE10BD10B5F1
:1028F000FFF78EFE10BD10B5FFF7A3FE10BD10B59B
:10290000FFF753FE10BD10B5FFF765FE10BD10B503
:10291000FFF73AFE10BD10B5FFF77EFE10BD70B593
:1029200004460D4629462046FFF7DAFE70BD10B575
:10293000FFF7E4FE10BD704710B500232A4C23803A
:102940002A4C237010BD7047704701462648008806
:10295000264A1278801A01D1012070470020FCE736
:1029600010B50246214B1878431C204C2370204B95
:10297000195C1D48008823461B78984204D100202A
:1029800023461870184B1880084610BD70B50546D0
:102990000C462046FFF78FFB70BD70470021124A9E
:1029A0001180124A11707047704770472400002050
:1029B0004700002025303258253032582530325813
:1029C000253032582530325825303258253032588B
:1029D000253032582530325825303258253032587B
:1029E00000000000AC0122421C0000205200002028
:1029F0005202002010B5044600202073207284F893
:102A00004E0084F876000120A4F87200002084F8BB
:102A10004E00012084F8770000210820FFF759FDBF
:102A2000FFF7C3FD10BD70B504460D4625600021BB
:102A30000420FFF74EFD00BFF7A104F1840002F06F
:102A4000CDF900BF2046FFF7D5FF70BD10B5044695
:102A50002068FFF779FF10BD70B504460D46294682
:102A60002068FFF793FF70BD2DE9F04107460D4642
:102A70001646002405E0295D3846FFF7EDFF601C8F
:102A8000C4B2B442F7DBBDE8F081417170472DE973
:102A9000F041044694F81180267DB8F1A20F65D06C
:102AA0001ADCB8F1830F79D00CDCB8F1450F76D081
:102AB000B8F1460F74D0B8F1800F25D0B8F1820F6D
:102AC0002DD1D6E0B8F1880F6BD0B8F18A0F69D05C
:102AD000B8F1A00FF4D123E0B8F1C30F71D009DC35
:102AE000B8F1A30F70D0B8F1A50F6CD0B8F1C20F38
:102AF000E6D191E0B8F1C40F7ED0B8F1C80F7CD018
:102B0000B8F1CA0FDCD1ABE026B90C212046FFF7A3
:102B1000BCFF04E000BF2046FFF76CFF00BFF9E0F8
:102B2000F6B9617DA07D41EA002194F84D2004F1C1
:102B3000500020F8121014F84D0F401C207014F8AB
:102B40004D09032804DA11212046FFF79EFF0CE00F
:102B500012212046FFF799FF002084F84D0004E081
:102B600000BF2046FFF746FF00BFD3E01EBB617DDC
:102B7000A07D41EA002194F84D2004F1560020F890
:102B8000121014F84D0F401C207014F84D0906283F
:102B900009DA12212046FFF778FF11E080E089E092
:102BA00090E082E06AE0002084F84D001321204686
:102BB000FFF76BFF04E000BF2046FFF71BFF00BFDD
:102BC000A8E036E000E085E006BB617DA07D41EA3B
:102BD000002194F84D2004F1640020F8121014F83C
:102BE0004D0F401C207014F84D09072806DA1321F8
:102BF0002046FFF74AFF0EE071E044E0002084F831
:102C00004D0020212046FFF740FF04E000BF204692
:102C1000FFF7F0FE00BF7DE0217D607D41EA0025E9
:102C2000A17DE07D41EA002518212046FFF72DFF18
:102C300070E0A17CE07C41EA0027217D607D41EAD3
:102C40000025A17DE07D41EA0025381F81B204F115
:102C50001800FFF73AFE1A212046FFF716FF59E049
:102C6000217D607D41EA002519212046FFF70DFFF7
:102C700050E0217D607D41EA00254BE0217D607DB3
:102C800041EA002546E0217D607D41EA0025A17DE5
:102C9000E07D41EA00251C212046FFF7F6FE39E0E1
:102CA000217D607D41EA002534E0217D607D41EA9F
:102CB00000252FE0217D607D41EA0025002084F879
:102CC000770027E0217D607D41EA0025002084F81F
:102CD00077001FE01D212046FFF7D7FE1AE0A17CF8
:102CE000E07C41EA0027217D607D41EA0025A17D4D
:102CF000E07D41EA00257020005BA84205D1217EDD
:102D0000607E41EA0020A4F8720017212046FFF7F8
:102D1000BCFE00BF00BFBDE8F0812DE9F0410446D4
:102D2000667C257D412E10D0802E22D13DB9002019
:102D300084F84D000B212046FFF7A7FE04E000BFFA
:102D40002046FFF757FE00BF13E0217D607D41EA7A
:102D50000027E17D207E41EA002700210846FFF799
:102D6000B8FB012084F84E0028212046FFF78DFE95
:102D700000BF00BFBDE8F081F8B50446667C257D44
:102D8000882E42D008DC4C2E0DD0542E71D0812ECE
:102D90002FD0842E0BD15BE0932E1AD0F12E67D06A
:102DA000FF2EF7D188E075B9E07D012800D084E0DE
:102DB000617DA07D41EA0020A4F874001F21204617
:102DC000FFF763FE04E000BF2046FFF713FE00BFDD
:102DD00073E0217D607D41EA002700210120FFF79B
:102DE00078FB002084F84E0016212046FFF74DFEA8
:102DF00063E025B90A212046FFF747FE04E000BF43
:102E00002046FFF7F7FD00BF57E0822D1CD00DDCF8
:102E10008DB1812D1AD116E0597568745F54433312
:102E2000353636312D35303100000000862D09D081
:102E3000A42D0BD109E00120009069460320FFF783
:102E400048FB03E002E001E000E000BF00BF34E027
:102E50003DB9002084F84D0011212046FFF715FEF2
:102E600004E000BF2046FFF7C5FD00BF25E000E0FD
:102E700021E0D5B915212046FFF707FE01220020E9
:102E800006E0FA49095C09B1002203E0411CC8B21E
:102E90000628F6DB02B910E0F4491039D4F81530F1
:102EA0000B61B4F81900888204E000BF2046FFF7E8
:102EB000A1FD00BF01E000E000BF00BFF8BD2DE9AB
:102EC000F0410446677C267D482F16D004DC432F52
:102ED0001ED0442F3CD12BE0812F02D0F12F37D1CF
:102EE00032E026B90F212046FFF7CFFD04E000BFF6
:102EF0002046FFF77FFD00BF2AE0217D607D41EA8B
:102F0000002525B1294604F11600FFF7DEFC1FE07D
:102F100046B900210846FFF7DCFA28212046FFF7D2
:102F2000B4FD04E000BF2046FFF764FD00BF0FE0E2
:102F300026B900210120FFF7CCFA04E000BF2046AB
:102F4000FFF758FD00BF03E0002084F8770000BFC2
:102F500000BFBDE8F0812DE9F047044694F81190D8
:102F6000257DB9F18C0F6FD011DCB9F16E0F51D006
:102F700006DCB9F1470F17D0B9F1550F3ED13EE04D
:102F8000B9F17D0F54D0B9F1810FF7D16BE0B9F1F0
:102F9000930F6ED0B9F1BD0F6CD0B9F1F10F6AD0BB
:102FA000B9F1FF0FEAD1FEE0E07E08280DD2DFE89C
:102FB00000F00405060708090A0B06E005E004E036
:102FC00003E002E001E000E000BF00BFE07E032874
:102FD0000DD1002009E000F10F0104F10D02515C58
:102FE000A24A103A1154411CC8B21028F3DB872DB5
:102FF00004D110219D48103801F078FFD4E06169B8
:10300000C4F87E10208BA4F8820024212046FFF70C
:103010003CFDC9E0A67E1F2E00D91F26002104F129
:10302000A4008155324604F11B0101F01AFFBBE0F8
:1030300094F81380277D312F07D0322F0AD0332FF9
:1030400009D0362F0DD10BE01CE025212046FFF7DB
:103050001CFD06E005E026212046FFF716FD00E0F6
:1030600000BF00BFA0E03DB90E212046FFF70DFDD7
:1030700007E013E020E06AE000BF2046FFF7BAFC5B
:1030800000BF91E025B916212046FFF7FEFC04E0C1
:1030900000BF2046FFF7AEFC00BF85E035B1012D33
:1030A00005D0032D04D0062D04D102E002E001E09A
:1030B00000E000BF00BF77E0607B092811D1A07954
:1030C0000C2802D00D280AD104E00D212046FFF77C
:1030D000DCFC05E011212046FFF7D7FC00E000BF33
:1030E00034E0607B0E2831DD94F81B80617EA07E89
:1030F00041EA002740F61C41781A8F421BD005DCBC
:10310000A7F22B40A8B101281FD113E0022817D045
:1031100008281AD13DB9B8F1000F04D12221204668
:10312000FFF7B3FC04E000BF2046FFF763FC00BFDD
:103130000BE00AE009E010212046FFF7A6FC04E0BE
:1031400023212046FFF7A1FC00BF00BF2CE00C2D7F
:103150001FD009DC0B2D23D2DFE805F0151622174E
:103160001819222222221A00422D16D006DC0D2D1B
:1031700010D0402D0FD0412D12D10DE0432D0DD098
:10318000442D0DD10BE00CE00BE00AE009E008E073
:1031900007E006E005E004E003E002E001E000E013
:1031A00000BF00BF00E000BF00BFBDE8F0872DE911
:1031B000F047044694F80E90B9F10E0F06D0B9F11D
:1031C000100F2FD0B9F1FF0F2BD140E0617CA07C14
:1031D00041EA0027E57C37B1A7F6034040B1B0F5DE
:1031E000826F1DD110E001212046FFF74EFC17E051
:1031F00025B902212046FFF748FC04E000BF204625
:10320000FFF7F8FB00BF0BE025B907212046FFF7C9
:103210003CFC04E000BF2046FFF7ECFB00BF00BF12
:1032200000BF85E0207C202804D0212803D022285C
:1032300003D101E001E000E000BF00BF012084F8FD
:103240007600FFF70DFB0A30C4F8C40070E094F874
:103250001080A67CB8F1080F69D1992E0DD1E07CC1
:1032600030B909212046FFF710FC60E02C04002053
:1032700000BF2046FFF7BEFB59E0932E0BD1E07C48
:1032800020B908212046FFF700FC50E000BF20468F
:10329000FFF7B0FB4BE094F817A0BAF10D0F09D07F
:1032A000BAF15B0F13D0BAF1830F1DD0BAF1880FBA
:1032B0003BD126E0207E20B903212046FFF7E5FB25
:1032C00004E000BF2046FFF795FB00BF2DE0207E05
:1032D00020B904212046FFF7D8FB04E000BF2046B8
:1032E000FFF788FB00BF20E0207E20B905212046A3
:1032F000FFF7CBFB04E000BF2046FFF77BFB00BFDE
:1033000013E0207E58B9D4F81B10A167B4F81F0051
:10331000A4F87C0006212046FFF7B7FB04E000BFBD
:103320002046FFF767FB00BF00BF00BF00BF00BF24
:1033300000BFBDE8F08770B504460D4620684078B0
:1033400010B1002021684870207A30B1012809D0DE
:1033500002282ED003286ED13CE065730120207333
:10336000207268E0217B04F10D004554207B401C55
:103370002073207B03281BD1607B042805D1022009
:103380002072E07BC01C608112E0617BA07B41EA7F
:103390000021E07B41EA0046B6F5803F04D300BF40
:1033A0002046FFF727FB00BF66810320207200BF85
:1033B00041E0217B04F10D004554207B401C20732B
:1033C000207B6189884204D12046FFF7F0FE00206F
:1033D000207230E0217B04F10D004554207B401C1D
:1033E0002073207B6189884224D1207CD3281AD085
:1033F00004DCD1280FD0D22819D110E0E12802D066
:10340000E52814D103E02046FFF7A5FD0FE0204694
:10341000FFF755FD0BE02046FFF7AEFC07E0204626
:10342000FFF77BFC03E02046FFF731FB00BF00BF46
:103430000020207200BF00BF70BD01B588B009E058
:10344000089800680490FFF78BFA014605900898E9
:10345000FFF771FF089800680590FFF776FA0028DB
:10346000EED008984079002801F0F881089840795A
:10347000292881F0EC81DFE810F09608290030005F
:1034800036003C004200480062006800B6011502A8
:103490000F0247024D02D200E400EA005302BC02D0
:1034A000E9037A06800698068F07F1074408970813
:1034B0009608EA083D09960894097100D800DE00D4
:1034C000F000F600740199019608E3090422F84916
:1034D0000898FFF7C9FA01F0BAB90D22F549089822
:1034E000FFF7C2FAF7E70F22F3490898FFF7BCFA93
:1034F000F1E70D22F1490898FFF7B6FAEBE714223D
:10350000EF490898FFF7B0FAE5E70422ED4908987B
:10351000FFF7AAFA062005900DE00598411E0898CD
:103520007830405C014604900898FFF795FA0598BA
:10353000401EC0B2059005980028EEDCCBE70722BC
:10354000E1490898FFF790FAC5E76420FEF7FAFB17
:103550000722DE490898FFF787FABCE7089884300D
:1035600001F060FC0A3080B2079000BF0798C0B23B
:10357000014605900898FFF76FFA0798000A014680
:1035800005900898FFF768FA00210898FFF764FA99
:1035900000BF0222CE490898FFF766FA08988430E7
:1035A00001F040FCC01C80B2079000BF0798C0B279
:1035B000014605900898FFF74FFA0798000A014660
:1035C00005900898FFF748FA00BF04210898FFF714
:1035D00043FA02210898FFF73FFA0898843001F077
:1035E00021FCC0B2014605900898FFF735FA00208B
:1035F00005900CE0089884300599405C01460490E1
:103600000898FFF729FA0598401CC0B20590089861
:10361000843001F007FC05998842EBD85BE70D2266
:10362000AC490898FFF720FA55E70D22AA490898F7
:10363000FFF71AFA4FE70722A8490898FFF714FA8C
:1036400049E70E22A6490898FFF70EFA43E70E2233
:10365000A4490898FFF708FA3DE70822A24908980C
:10366000FFF702FA37E70020069005900AE09F492D
:103670000598085C10B10120069006E00598401CF2
:10368000C0B2059005981028F1DB069808B110200B
:1036900000E000200F30079000BF0798C0B201463D
:1036A00005900898FFF7D8F90798000A0146059099
:1036B0000898FFF7D1F900210898FFF7CDF900BF6E
:1036C00002228B490898FFF7CFF9069808B110201D
:1036D00000E000200830079000BF0798C0B2014604
:1036E00005900898FFF7B8F90798000A0146059079
:1036F0000898FFF7B1F900BF00210898FFF7ACF96F
:10370000002005900CE008987E300599405C014649
:1037100004900898FFF7A0F90598401CC0B20590E6
:1037200005980628EFDB0698B0B101210898FFF74D
:1037300093F9002005900BE06C490598085C014660
:1037400004900898FFF788F90598401CC0B20590CE
:1037500005981028F0DB03E000210898FFF77CF9BA
:10376000B9E60A2263490898FFF77EF90020059020
:103770000CE008987E300599405C0146049008985A
:10378000FFF76AF90598401CC0B205900598062815
:10379000EFDB03210898FFF75FF900210898FFF796
:1037A0005BF903210898FFF757F994E60A2252497A
:1037B0000898FFF759F9002005900CE008987E3032
:1037C0000599405C014604900898FFF745F9059873
:1037D000401CC0B2059005980628EFDB0021089830
:1037E000FFF73AF977E60898843001F01BFB0830C0
:1037F00080B2079000BF0798C0B2014605900898B4
:10380000FFF72AF90798000A014605900898FFF784
:1038100023F900210898FFF71FF900BF022237495A
:103820000898FFF721F90898843001F0FBFA401C52
:1038300080B2079000BF0798C0B201460590089873
:10384000FFF70AF90798000A014605900898FFF764
:1038500003F900BF0898843001F0E4FAC0B20146D1
:1038600005900898FFF7F8F8002005900CE00898FC
:1038700084300599405C014604900898FFF7ECF805
:103880000598401CC0B205900898843001F0CAFA2F
:1038900005998842EBD81EE6072219490898FFF7D8
:1038A000E3F818E6072217490898FFF7DDF812E653
:1038B00060540008645400087154000880540008E3
:1038C0008D540008A1540008A5540008AC54000809
:1038D000B35400081B550008B5540008C254000832
:1038E0002855000836550008C95400081C0400205B
:1038F000D1540008D3540008DD540008E7540008F0
:10390000E9540008F05400081222FE490898FFF715
:10391000ABF8E0E51222FC490898FFF7A5F8DAE5D4
:10392000089890F84D00022801D0022000E01020F5
:103930000830079000BF0798C0B20146059008986C
:10394000FFF78AF80798000A014605900898FFF7E4
:1039500083F800210898FFF77FF800BFD32108986B
:10396000FFF77AF820210898FFF776F800BF07984C
:10397000C01FC0B2014605900898FFF76DF8079880
:10398000C01FC0F30720014605900898FFF764F8B0
:1039900000BF07980838C0B2014605900898FFF7A5
:1039A0005BF8089890F84D0048B900BF00210898CE
:1039B000FFF752F818210898FFF74EF800BF089853
:1039C00090F84D00012809D100BF0A210898FFF79F
:1039D00043F818210898FFF73FF800BF089890F8BF
:1039E0004D00022804D11022C8490898FFF73CF87E
:1039F00071E50D20079000BF0798C0B20146059001
:103A00000898FFF729F80798000A014605900898DA
:103A1000FFF722F800210898FFF71EF800BFD32116
:103A20000898FFF719F822210898FFF715F800BF4A
:103A30000798C01FC0B2014605900898FFF70CF820
:103A40000798C01FC0F30720014605900898FFF7AC
:103A500003F800BF089890F84D0020BB00BF0898FD
:103A600090F85000014605900898FEF7F5FF089879
:103A7000B0F85000000A014605900898FEF7ECFFE8
:103A800000BF02210898FEF7E7FF02210898FEF721
:103A9000E3FF00BF00210898FEF7DEFF2A21089807
:103AA000FEF7DAFF00BF089890F84D00012824D1F6
:103AB00000BF089890F85000014605900898FEF75E
:103AC000CBFF0898B0F85000000A0146059008980E
:103AD000FEF7C2FF00BF02210898FEF7BDFF0221DA
:103AE0000898FEF7B9FF00BF01210898FEF7B4FF60
:103AF0002A210898FEF7B0FF00BF089890F84D0003
:103B0000022824D100BF089890F852000146059081
:103B10000898FEF7A1FF0898B0F85200000A014685
:103B200005900898FEF798FF00BF02210898FEF75D
:103B300093FF02210898FEF78FFF00BF2921089804
:103B4000FEF78AFF2A210898FEF786FF00BF089833
:103B500090F84D00032824D100BF089890F8520037
:103B6000014605900898FEF777FF0898B0F85200D4
:103B7000000A014605900898FEF76EFF00BF02217B
:103B80000898FEF769FF02210898FEF765FF00BF5D
:103B900024210898FEF760FF2A210898FEF75CFFB1
:103BA00000BF089890F84D00042824D100BF089861
:103BB00090F85200014605900898FEF74DFF0898CE
:103BC000B0F85200000A014605900898FEF744FF3D
:103BD00000BF02210898FEF73FFF02210898FEF778
:103BE0003BFF00BF23210898FEF736FF2A210898E3
:103BF000FEF732FF00BF089890F84D00052824D149
:103C000000BF089890F85400014605900898FEF708
:103C100023FF0898B0F85400000A01460590089860
:103C2000FEF71AFF00BF38210898FEF715FF0221A2
:103C30000898FEF711FF00BFE1210898FEF70CFF7E
:103C4000FF210898FEF708FF00BF44E40E2007900C
:103C5000089890F84D0040B90898843001F0E2F8D7
:103C6000801C0799084480B20790089890F84D008E
:103C7000012803D10798001D80B20790089890F89A
:103C80004D00022803D10798093080B207900898A8
:103C900090F84D00032803D107980B3080B20790AD
:103CA000089890F84D00042803D107980A3080B294
:103CB0000790089890F84D00052803D107985730D1
:103CC00080B20790089890F84D00062803D1079815
:103CD000001D80B2079000BF0798C0B20146059052
:103CE0000898FEF7B9FE0798000A01460590089863
:103CF000FEF7B2FE00210898FEF7AEFE00BFD3210A
:103D0000089805E0F7540008095500084A550008CE
:103D1000FEF7A2FE23210898FEF79EFE00BF07983B
:103D2000C01FC0B2014605900898FEF795FE07989F
:103D3000C01FC0F30720014605900898FEF78CFECF
:103D400000BF089890F84D00D0BB00BF089890F8CD
:103D50005600014605900898FEF77EFE0898B0F8D8
:103D60005600000A014605900898FEF775FE00BF50
:103D700002210898FEF770FE00BF00210898FEF7A8
:103D80006BFE2A210898FEF767FE00BF00BF089867
:103D9000843001F047F8C0B2014605900898FEF75C
:103DA0005BFE0898843001F03DF8C0F3072001461F
:103DB00005900898FEF750FE00BF002005900DE02A
:103DC0001DE0089884300599405C014604900898ED
:103DD000FEF742FE0598401CC0B20590089884305A
:103DE00001F020F805998842EBD800BF002108981F
:103DF000FEF732FE00210898FEF72EFE00BF08985D
:103E000090F84D0001283ED100BF089890F8580066
:103E1000014605900898FEF71FFE0898B0F8580074
:103E2000000A014605900898FEF716FE00BF022121
:103E30000898FEF711FE00BF01210898FEF70CFE5E
:103E40002A210898FEF708FE00BF00BF022108984B
:103E5000FEF702FE00210898FEF7FEFD00BF00BF3E
:103E600042210898FEF7F8FD14210898FEF7F4FDAA
:103E700000BF00BF00210898FEF7EEFD0021089862
:103E8000FEF7EAFD00BF089890F84D00022839D1EE
:103E900000BF089890F85A00014605900898FEF770
:103EA000DBFD0898B0F85A00000A01460590089812
:103EB000FEF7D2FD00BF02210898FEF7CDFD00BF3E
:103EC00029210898FEF7C8FD2A210898FEF7C4FDAD
:103ED00000BF00BF07210898FEF7BEFD002108982B
:103EE000FEF7BAFD00BF0722FE490898FEF7BCFDA9
:103EF00000BF00210898FEF7AFFD00210898FEF7EB
:103F0000ABFD00BF089890F84D0003284DD100BFCD
:103F1000089890F85C00014602900898FEF79CFD16
:103F20000898B0F85C00000A014602900898FEF775
:103F300093FD00BF02210898FEF78EFD00BF2421EB
:103F40000898FEF789FD2A210898FEF785FD00BF35
:103F500000BF09210898FEF77FFD00210898FEF7B1
:103F60007BFD00BF4FF4BC62DFA103A800F0CEFDD3
:103F7000002002900BE003A90298085C0146019022
:103F80000898FEF769FD0298401CC0B202900298A2
:103F90000928F0DB00BF00210898FEF75DFD002135
:103FA0000898FEF759FD00BF00BF089890F84D0033
:103FB000042846D100BF089890F85E00014605909D
:103FC0000898FEF749FD0898B0F85E00000A01461F
:103FD00005900898FEF740FD00BF02210898FEF703
:103FE0003BFD00BF23210898FEF736FD2A210898E3
:103FF000FEF732FD00BF00BF08210898FEF72CFD38
:1040000000210898FEF728FD00BF002005900BE076
:10401000B7490598085C014604900898FEF71CFD16
:104020000598401CC0B2059005980828F0DB00BF39
:1040300000210898FEF710FD00210898FEF70CFDFE
:1040400000BF089890F84D00052842D100BF08989D
:1040500090F86000014605900898FEF7FDFC08986E
:10406000B0F86000000A014605900898FEF7F4FCDD
:1040700000BF02210898FEF7EFFC00BFE12108987D
:10408000FEF7EAFCFF210898FEF7E6FC00BF00BF40
:1040900055210898FEF7E0FC00210898FEF7DCFCAB
:1040A00000BF0020059007E000210898FEF7D4FC2F
:1040B0000598401CC0B2059005985528F4DB00BF58
:1040C00000210898FEF7C8FC00210898FEF7C4FC00
:1040D00000BF089890F84D00062847D100BF089807
:1040E00090F86000014605900898FEF7B5FC089826
:1040F000B0F86000000A014605900898FEF7ACFC95
:1041000000BF02210898FEF7A7FC00BF0221089813
:10411000FEF7A2FC29210898FEF79EFC00BF00BF15
:1041200002210898FEF798FC00210898FEF794FCFD
:1041300000BF00BF089890F87200014605900898EB
:10414000FEF78AFC0898B0F87200000A0146059054
:104150000898FEF781FC00BF00BF03210898FEF716
:104160007BFC00210898FEF777FC00BF6FE3072275
:1041700060490898FEF778FC69E307225E490898D1
:10418000FEF772FC002005900BE05C480599405C4E
:10419000014604900898FEF75FFC0598401CC0B2E9
:1041A000059005980628F0DB51E35620079000BFE4
:1041B0000798C0B2014605900898FEF74DFC079895
:1041C000000A014605900898FEF746FC0021089871
:1041D000FEF742FC00BFD1210898FEF73DFC082104
:1041E0000898FEF739FC4F20079000BF0798C0B22F
:1041F000014605900898FEF72FFC0798000A014633
:1042000005900898FEF728FC00BF00BF40210898E1
:10421000FEF722FC00210898FEF71EFC00BF00BF3D
:1042200040210898FEF718FC00210898FEF714FCBE
:1042300000BF00210898FEF70FFC00210898FEF748
:104240000BFC00210898FEF707FC06222C49089871
:10425000FEF70AFC07210898FEF7FEFB00210898EC
:10426000FEF7FAFB1F210898FEF7F6FB02210898DB
:10427000FEF7F2FB01210898FEF7EEFB01210898FA
:10428000FEF7EAFB11210898FEF7E6FB07210898E4
:10429000FEF7E2FB10221B490898FEF7E5FB05211B
:1042A0000898FEF7D9FB03210898FEF7D5FB00BF5D
:1042B00000210898FEF7D0FB18210898FEF7CCFBE8
:1042C00000BF00BF0A210898FEF7C6FB1821089816
:1042D000FEF7C2FB00BF00210898FEF7BDFB0021DE
:1042E000089811E05A55000864726F705F256400E9
:1042F0004700002061550008685500082C04002084
:10430000445500084A550008FEF7A6FB002108980E
:10431000FEF7A2FB00210898FEF79EFB1F210898DC
:10432000FEF79AFB0898843000F07CFD401CC0B278
:10433000014605900898FEF78FFB09210898FEF7C3
:104340008BFB002005900CE0089884300599405CB8
:10435000014604900898FEF77FFB0598401CC0B208
:1043600005900898843000F05DFD05998842EBD8EF
:104370000898843000F056FD801CC0B2059007E01C
:1043800000210898FEF768FB0598401CC0B2059014
:1043900005981F28F4DB5AE20D20079000BF07980C
:1043A000C0B2014605900898FEF756FB0798000A30
:1043B000014605900898FEF74FFB00210898FEF78C
:1043C0004BFB00BFD3210898FEF746FB2521089838
:1043D000FEF742FB00BF0798C01FC0B20146059020
:1043E0000898FEF739FB0798C01FC0F30720014665
:1043F00005900898FEF730FB00BF00BF089890F8C2
:104400007000014605900898FEF726FB0898B0F862
:104410007000000A014605900898FEF71DFB00BFDA
:1044200000BF02210898FEF717FB00210898FEF74D
:1044300013FB00BF00BF089890F87200014605907A
:104440000898FEF709FB0898B0F87200000A0146C8
:1044500005900898FEF700FB00BFF8E10C200790DC
:1044600000BF0798C0B2014605900898FEF7F4FA1D
:104470000798000A014605900898FEF7EDFA00211A
:104480000898FEF7E9FA00BFD3210898FEF7E4FA8E
:1044900002210898FEF7E0FA00BF0798C01FC0B2DB
:1044A000014605900898FEF7D7FA0798C01FC0F399
:1044B0000720014605900898FEF7CEFA00BF00BF1E
:1044C000089890F87400014605900898FEF7C4FA21
:1044D0000898B0F87400000A014605900898FEF7A5
:1044E000BBFA00BF00210898FEF7B6FA00BF002112
:1044F0000898FEF7B1FA00210898FEF7ADFA00BF60
:10450000A5E10C20079000BF0798C0B201460590B6
:104510000898FEF7A1FA0798000A01460590089846
:10452000FEF79AFA00210898FEF796FA00BFD32109
:104530000898FEF791FA0A210898FEF78DFA00BF55
:104540000798C01FC0B2014605900898FEF784FA8C
:104550000798C01FC0F30720014605900898FEF792
:104560007BFA00BF00BF089890F8740001460590E0
:104570000898FEF771FA0898B0F87400000A01462E
:1045800005900898FEF768FA00BF00210898FEF72A
:1045900063FA00BF00210898FEF75EFA0021089830
:1045A000FEF75AFA00BF52E10C20079000BF0798AF
:1045B000C0B2014605900898FEF74EFA0798000A27
:1045C000014605900898FEF747FA00210898FEF783
:1045D00043FA00BFD3210898FEF73EFA032108985A
:1045E000FEF73AFA00BF0798C01FC0B20146059017
:1045F0000898FEF731FA0798C01FC0F3072001465C
:1046000005900898FEF728FA00BF00BF089890F8B8
:104610007400014605900898FEF71EFA0898B0F855
:104620007400000A014605900898FEF715FA00BFCD
:1046300000210898FEF710FA00BF00210898FEF745
:104640000BFA00210898FEF707FA00BFFFE00C20E4
:10465000079000BF0798C0B2014605900898FEF782
:10466000FBF90798000A014605900898FEF7F4F94F
:1046700000210898FEF7F0F900BFD3210898FEF753
:10468000EBF908210898FEF7E7F900BF0798C01F6B
:10469000C0B2014605900898FEF7DEF90798C01FE2
:1046A000C0F30720014605900898FEF7D5F900BF32
:1046B00000BF089890F87400014605900898FEF72E
:1046C000CBF90898B0F87400000A014605900898E4
:1046D000FEF7C2F900BF00210898FEF7BDF900BF40
:1046E00000210898FEF7B8F900210898FEF7B4F900
:1046F00000BFACE00C20079000BF0798C0B2014695
:1047000005900898FEF7A8F90798000A0146059059
:104710000898FEF7A1F900210898FEF79DF900BF5F
:10472000D3210898FEF798F904210898FEF794F928
:1047300000BF0798C01FC0B2014605900898FEF759
:104740008BF90798C01FC0F3072001460590089811
:10475000FEF782F900BF00BF089890F87400014688
:1047600005900898FEF778F90898B0F87400000AE8
:10477000014605900898FEF76FF900BF00210898E0
:10478000FEF76AF900BF00210898FEF765F90021DD
:104790000898FEF761F900BF0021089880F87710AB
:1047A00055E00B20079000BF0798C0B20146059066
:1047B0000898FEF751F90798000A014605900898F5
:1047C000FEF74AF900210898FEF746F900BFD2210A
:1047D0000898FEF741F901210898FEF73DF900BF5E
:1047E0000798C01FC0B2014605900898FEF734F93B
:1047F0000798C01FC0F30720014605900898FEF7F0
:104800002BF900BF00BF089890F87400014605908E
:104810000898FEF721F90898B0F87400000A0146DC
:1048200005900898FEF718F900BF00BF55210898B9
:10483000FEF712F900210898FEF70EF900BF06E016
:10484000FEF70EF864300899C1F8C40000BF00BF3D
:10485000089841798171002108984171089890F871
:10486000760090B1FDF7FCFF0899D1F8C41088429A
:104870000BD90021089880F8761008988179417149
:104880004FF0FF310898C0F8C410089880792828A4
:1048900010D1FDF7E5FF0899D1F8C410884209D975
:1048A0000021089880F8771008988171491E0898AF
:1048B000C0F8C41009B000BD014691F8770008B1F6
:1048C000002070470120FCE710B50446FDF7C8FF43
:1048D00000F57A70C4F8C40010BD2DE9F04104461B
:1048E0000F4615462046FFF7E7FF08B9BDE8F081FF
:1048F00094F84E0000287DD094F8720000F0020079
:10490000002853D005F10B0086B200BFF1B220465B
:10491000FEF7A2F8310A2046FEF79EF80021204655
:10492000FEF79AF800BFD3212046FEF795F806213E
:104930002046FEF791F800BFF01FC1B22046FEF7F7
:104940008BF8F01FC0F307212046FEF785F800BF63
:1049500000BF94F874102046FEF77EF8B4F8740097
:10496000010A2046FEF778F800BF00BF6E20015D07
:104970002046FEF771F86E20005B010A2046FEF724
:104980006BF800BF4FF0000808E017F80810204649
:10499000FEF762F808F1010000F0FF08A845F4DB1B
:1049A0001E20A071012084F877009FE794F8720020
:1049B00000F00100002855D005F10B0086B200BFC1
:1049C000F1B22046FEF748F8310A2046FEF744F8D7
:1049D00000212046FEF740F800BFD3212046FEF715
:1049E0003BF805212046FEF737F800BFF01FC1B2A3
:1049F000204600E037E0FEF72FF8F01FC0F3072154
:104A00002046FEF729F800BF00BF94F87410204636
:104A1000FEF722F8B4F87400010A2046FEF71CF8ED
:104A200000BF00BF6E20015D2046FEF715F86E2026
:104A3000005B010A2046FEF70FF800BF4FF00008A8
:104A400008E017F808102046FEF706F808F1010004
:104A500000F0FF08A845F4DB1B20A071012084F8BA
:104A6000770043E742E000BF05F10900C1B22046EC
:104A7000FDF7F2FF05F10900C0F307212046FDF71D
:104A8000EBFF05F10900010C2046FDF7E5FF00BF33
:104A9000E5212046FDF7E0FF08212046FDF7DCFF79
:104AA00000BFA81CC1B22046FDF7D6FFA81CC0F36A
:104AB00007212046FDF7D0FF00BF00BFE9B2204626
:104AC000FDF7CAFF290A2046FDF7C6FF00BF0026F2
:104AD00005E0B95D2046FDF7BFFF701C86B2AE420F
:104AE000F7DB2720A071012084F8770000BFFDE6E6
:104AF000704700000FB4044910B503AA029800F0F3
:104B0000EFFA10BC5DF814FB140000200FB41CB5C4
:104B1000074B06AA7B4469460090059800F0B1FA5D
:104B20000020694600F0C0FA1CBC5DF814FB0000D0
:104B30009105000070B5044685690068C10601D57D
:104B4000302600E02026C00707D070BDD4E901213F
:104B500030469047206A401C20626D1EF6D570BD1D
:104B600070B5044685690078C00707D170BDD4E9E7
:104B7000012120209047206A401C20626D1EF6D53E
:104B800070BD70B50C460546012A05D02878800610
:104B900000D5EA69002302E0012305E05B1C934293
:104BA00002D2E05C0028F9D1A869E618C01AA86111
:104BB000286A184428622846FFF7BCFF04E0D5E9BC
:104BC000012114F8010B9047B442F8D32846FFF7AF
:104BD000C7FF70BD2DE9F041064600241068752915
:104BE000314616A510D0AFF30080002802DA40420B
:104BF00013A507E031688A0701D512A502E049072D
:104C000004D511A5012401E0AFF3008000210A22A0
:104C100006F1240709E0B0FBF2FCB0FBF2F302FB63
:104C20001C00303078541846491C0028F3D1234624
:104C30002A463046BDE8F04100F0C5B9000000004A
:104C40002D0000002B0000002000000070B504467D
:104C50000D4621461068AFF300802188090502D572
:104C60000F4A7A4402E00E4A7A440E32002104F1DF
:104C7000240305E000F00F060009965D5E54491C10
:104C80000028F7D120780023000704D5702D02D02A
:104C900009B1022311322046BDE8704000F093B9FB
:104CA000090900002DE9F05F894604464FF0000A2B
:104CB000DFF824B1FB44C0F820A02046E168884713
:104CC00000287DD0252806D0D4E901219047206A0C
:104CD000401C2062F1E700255F462046E1688847D6
:104CE0002028064607DB312E05D2B81910F8200C13
:104CF00008B10543F1E7A80701D525F00405C4F87C
:104D00001CA00027C4F818A02A2E09D0304600F0B5
:104D1000A0FB38B304EB8708303EC8F8186019E0F0
:104D200059F8041B204604EB87029161E16888472B
:104D3000012F064618D1E069002820DA25F0200569
:104D40001DE0D8F8180000EB800006EB400030387A
:104D5000C8F818002046E1688847064600F079FB4D
:104D60000028EED1012F0AD02E2E08D12046E1686E
:104D700088477F1C0646022F45F02005C4DBA0694A
:104D8000002803DA404245F00105A061E80701D0A0
:104D900025F01005A6B1A6F14100192802D8203649
:104DA00045F400654A463146204625604D46FBF7EE
:104DB000D7F960B1012807D0ED1D25F0070000E00C
:104DC00007E000F1080978E705F1040975E73046C6
:104DD0007AE7206ABDE8F09FDF08000040EA01039F
:104DE000024630B59B0710D14FF0013400E008C2F5
:104DF00008C91D1B9D4315EAC41FF8D013F0FF011D
:104E000002F8011B0DD01B0AF8E711F8013B002B3B
:104E100002F8013B05D011F8013B002B02F8013BE1
:104E2000F3D130BD10B5431C02E010F8011B71B185
:104E30008107FAD14FF0013202C88C1A8C4314EA70
:104E4000C211F9D0C01A0A0603D0C01E10BDC01A84
:104E500010BD0A0401D0801E10BD0902FCD0401E06
:104E600010BD032A40F2308010F0030C00F01580D2
:104E700011F8013BBCF1020F624498BF11F801CB5D
:104E800000F8013B38BF11F8013BA2F1040298BFC2
:104E900000F801CB38BF00F8013B11F0030300F02C
:104EA0003181083AC0F0088051F8043B083A51F8C3
:104EB00004CBA0E80810F5E7121D5CBF51F8043BD5
:104EC00040F8043BAFF30080D20724BF11F8013B48
:104ED00011F801CB48BF11F8012B24BF00F8013BAA
:104EE00000F801CB48BF00F8012B70474FF00002DB
:104EF0000429C0F0128010F0030C00F03781CCF1CF
:104F0000040CBCF1020F18BF00F8012BA8BF20F859
:104F1000022BA1EB0C0100F029B95FEAC17C24BF90
:104F200000F8012B00F8012B48BF00F8012B704757
:104F3000704770477047000070B5064C7C44064DC2
:104F40007D4403E0206820448047241DAC42F9D111
:104F500070BD000088060000880600007047000051
:104F6000004870476C04002070B5064600F028F930
:104F7000056806F10B0020F00704B4429CBF002036
:104F800070BD2B466A68BAB11068A04210D304F114
:104F9000080188423CBF5068586007D35168101917
:104FA00041601168091B016058601460101D70BDDC
:104FB00013465268002AE7D12146284600F008F936
:104FC0000028DED170BD2DE9F0470D469946924686
:104FD000044600F124080168880604D5E06921F040
:104FE0001001216000E00120A84201DD471B00E024
:104FF0000027A1697A1902EB0900081AA06120783C
:10500000C00602D42046FFF795FD002608E0D4E94B
:1050100001211AF806009047206A401C761C206285
:105020004E45F4DB2078C0060AD52046FFF782FD06
:1050300006E0D4E9012130209047206A401C20621C
:10504000381EA7F10107F4DC07E0D4E9012118F8C4
:1050500005009047206A401C2062281EA5F101052A
:10506000F3DC2046FFF77CFD2078000602D5022005
:10507000BDE8F0870120FBE701694A1C026108785E
:10508000704700B58FB0CDE9013100210591054988
:105090007944CDE9031011466846FFF703FE0FB0CF
:1050A00000BD0000E5FFFFFF0A6802F8010B0A607F
:1050B000704710B5436913B1AFF3008001E0FFF70B
:1050C00060FD012010BD127800F124010A70002259
:1050D0004A700122EDE711684FF0FF32E9E7000066
:1050E000074B70B50D467B44FFF7CBFF04462846BF
:1050F00000F0DFF810B14FF0FF3070BD204670BDFA
:10510000B5CCFFFF10B5203AC0F00B80B1E81850C5
:10511000203AA0E81850B1E81850A0E81850BFF4A1
:10512000F5AF5FEA027C24BFB1E81850A0E8185040
:1051300044BF18C918C0BDE810405FEA827C24BF94
:1051400051F8043B40F8043B08BF7047D20728BF22
:1051500031F8023B48BF11F8012B28BF20F8023B71
:1051600048BF00F8012B70474FF0000200B513460E
:1051700094469646203922BFA0E80C50A0E80C5077
:10518000B1F12001BFF4F7AF090728BFA0E80C5028
:1051900048BF0CC05DF804EB890028BF40F8042B21
:1051A00008BF704748BF20F8022B11F0804F18BF8E
:1051B00000F8012B704700000048704734040020BD
:1051C000004870473C0400207047704770477047A4
:1051D00038B504460A4600206946AFF3008000282F
:1051E00008BF38BD02460099204600F08BF8012028
:1051F00038BD012000F0A6B8F8B5AFF30080054631
:1052000000200C46102000BF0646A819A0420DD968
:10521000324669460020AFF30080070008BF00F067
:1052200091F80098A04218BF0546C419FFF7C8FFBF
:1052300005600746F01D20F007004619284600F0DB
:105240000AF8B44208BFF8BDA21B31463868BDE871
:10525000F84000F057B800210160C0E90110704724
:105260001020704770B50446051FFFF7A9FF0068BE
:10527000002C14BF446870BD002C18BFAC423CBF6A
:1052800020466468F8D301680A18AA4218BF45602E
:1052900003D12A6805461144016028684119A142DA
:1052A0001CBF6C6070BD616869602168084428603B
:1052B00070BD007B00F0800070477546FFF77CFFF3
:1052C000AE4605006946534620F00700854618B0F3
:1052D00020B5FAF77BFFBDE820404FF000064FF005
:1052E00000074FF000084FF0000B21F00701AC461B
:1052F000ACE8C009ACE8C009ACE8C009ACE8C0093A
:105300008D467047034640688C46002818BF884287
:105310003CBF03464068F8D318681844884207D059
:105320000CF1030020F00700001D411A521A01463B
:10533000081D0A60FFF796BF0446AFF300802046C1
:10534000FAF72FFF10B500F009F8BDE81040AFF3F1
:105350000080002801D0FCF71FBD704710B5012860
:1053600005D0002103A000F021F8012010BD09A103
:10537000F8E7000053494752544D454D3A204F75C8
:1053800074206F662068656170206D656D6F72793D
:10539000000000003A2048656170206D656D6F72F5
:1053A0007920636F727275707465640070B505461C
:1053B0000C460A2000E06D1CFCF7E2FC35B12878B1
:1053C0000028F8D102E0641CFCF7DAFC14B1207864
:1053D0000028F8D1BDE870400A20FCF7D1BC2DE9C7
:1053E000F041074690460E4600251020FFF7BCFD11
:1053F00004000BD0C4F80C80C4E90176FFF7B0FDBF
:105400000168216004602846BDE8F0810125FAE7C3
:105410002DE9F0410646FFF7A3FD804613E026B1D3
:10542000E068B04201D025460EE020682860D4E94B
:105430000101D8F8007088472046FFF713FFD8F81D
:105440000000B84200D045462C68002CE7D1BDE8EA
:10545000F08130380A2801D20120704700207047BF
:1054600001030C000108FC0900A1000000140DFF5D
:10547000000108FC0B00A0000000145BFF02030108
:105480000108FC0900A00000001483FF000108FCD3
:105490001000A10000001488FF1006A00101060200
:1054A00000011310060108FC030093000108FC032F
:1054B000009901E1010D0000E13D0600240C0310FC
:1054C0000501070000E5010000080000E10C0100F3
:1054D00003E113130000E13D0C002B04091100004F
:1054E000E13D0A002C0406D101070000D3000000B2
:1054F000070000D2000000120000E13D0B0003FC99
:105500000800D1669804000000120000E13D0B0085
:1055100003FC0800D15498040000000D0000E13D98
:105520000600240C030404240E0000E13D07001CC7
:105530000C04000412000E0000E13D07001E0C04E4
:10554000000212000000000000001BC5D5A50200EB
:1055500003A9E3118BAAA0C679E0536B7942656178
:105560006E070000D11700000D0000D104060030C6
:105570003132333435363738394142434445464079
:105580003058003031323334353637383961626360
:1055900064656640307800040000080000000000E8
:1055A0000000020001000010CC550008000000209F
:1055B0005400000028010008205600085400002074
:1055C000440A0000440100084BD1FFFF0000000026
:1055D0000102030401020304060708090204060885
:1055E00000000000000000000000000000000000BB
:1055F0000000000000A24A040000000000000000BB
:105600000102030406070809000000000000000072
:10561000000000000102030405060708090A000053
:04000005080000ED02
:00000001FF
